:100000000C942A000C943F000C943F000C943F0089
:100010000C943F000C943F000C943F000C943F0064
:100020000C943F000C943F000C943F000C943F0054
:100030000C943F000C943F000C943F000C943F0044
:100040000C943F000C943F000C943F000C943F0034
:100050000C943F0011241FBECFE5D4E0DEBFCDBF1E
:1000600010E0A0E6B0E0E6E3F5E002C005900D92F6
:10007000AC3BB107D9F70E9441000C9499020C9453
:100080000000EF92FF920F931F93DF93CF93CDB7B2
:10009000DEB72A970FB6F894DEBF0FBECDBF83E35D
:1000A00090E00E94CB0180E00E942B0180E060E0A4
:1000B0000E94C20180E690E00E94560180E061E06B
:1000C0000E94C2018CE690E00E94560180E197E216
:1000D00029E130E0F9013197F1F70197D9F781E093
:1000E00090E060E070E00E94030180E060E00E9428
:1000F000C20189E790E00E9456018E010F5F1F4FF9
:1001000084EDE82E80E3F82E0E94D2018136D9F4E6
:1001100081E090E060E070E00E94030182E990E0FD
:100120000E9437028AE090E0B8014AE050E00E9465
:100130006802C8010E9437028AE090E00E94D6015E
:1001400088E990E01CC08236F9F681E090E060E03A
:1001500070E00E94030182E990E00E94370284E18E
:1001600090E0B8014AE050E00E946802C8010E9495
:1001700037028AE090E00E94D60188EA90E00E946F
:100180005601C7010197F1F7BFCF80E487B987E82F
:1001900086B9089597B1987F97B997B18770892BE1
:1001A00087B9369A349BFECF349A24B135B1C90150
:1001B000089584B3807F84BB959A969881E08A9550
:1001C000F1F721E0979A822F8A95F1F783B3829510
:1001D000807F922F9A95F1F79798922F9A95F1F741
:1001E000979A922F9A95F1F793B3922F9A95F1F7E8
:1001F0009798922F9A95F1F787FDE4CF959884B35D
:100200008F6084BB0895382F662311F4969801C03F
:10021000969A21E0822F8A95F1F7979A85B3932FCA
:1002200092959F70807F982B95BB822F8A95F1F7CE
:100230009798822F8A95F1F7979A85B33F70807FC0
:10024000832B85BB822F8A95F1F797982A95F1F732
:100250000E94D90008951F93182F8BE39BE201970A
:10026000F1F784B38F6084BB8F9A8E9A8D9A85B391
:10027000807F85BB97989598969881E0982F9A955E
:10028000F1F7979AA99A982F9A95F1F797988A95E6
:10029000F1F70E94D900812F8C6060E00E94030179
:1002A00088E260E00E9403011F910895CF93DF93DD
:1002B000EC0104C061E00E9403012196888188233B
:1002C000C9F7DF91CF910895EF92FF920F931F939B
:1002D000DF93CF9300D000D00F92CDB7DEB79C0153
:1002E0008B01FE01319685E0DF011D928A95E9F7C9
:1002F000FE0135960DC0C9016AE070E00E9441021E
:100300008083C9016AE070E00E9441029B0131973D
:100310002115310581F7BFEF0F3F1B0779F420E06E
:1003200030E0AE014F5F5F4F02C02F5F3F4FFA01D9
:10033000E20FF31F80818823C1F304C025E030E081
:10034000201B310B7E010894E11CF11CE20EF31E10
:10035000890109C0F70181917F01805D61E00E9400
:1003600003010F5F1F4F05301105A4F30F900F908D
:100370000F900F900F90CF91DF911F910F91FF90F1
:10038000EF900895883230F461118064806860E0F5
:100390000E940301089589B990BD86E880BD88ED6B
:1003A0008AB908955F9BFECF8CB108955D9BFECF07
:1003B0008CB908950F931F93DF93CF9300D000D093
:1003C0000F92CDB7DEB79C018B01FE01319685E01F
:1003D000DF011D928A95E9F7FE0135960DC0C9012E
:1003E0006AE070E00E9441028083C9016AE070E027
:1003F0000E9441029B0131972115310581F7BFEF22
:100400000F3F1B0771F4A0E0B0E09E012F5F3F4F4C
:1004100001C01196F901EA0FFB1F80818823C9F3FF
:1004200004C0A5E0B0E0A01BB10BA530B105ACF451
:10043000AC0FBD1F11968C915D9BFECF805D8CB97A
:1004400084EC99E0FC013197F1F7FC013197F1F769
:10045000FC013197F1F70197F1F70F900F900F9092
:100460000F900F90CF91DF911F910F910895FC0194
:1004700004C05D9BFECF8CB9319680818823C9F77B
:10048000089597FB092E07260AD077FD04D00CD0DB
:1004900006D000201AF4709561957F4F0895F6F705
:1004A000909581959F4F0895AA1BBB1B51E107C0F2
:1004B000AA1FBB1FA617B70710F0A61BB70B881FF4
:1004C000991F5A95A9F780959095BC01CD01089583
:1004D000FB019F01E8944230C4F04532B4F44A3045
:1004E00029F497FB1EF4909581959F4F642F7727F1
:1004F0000E945402805D8A330CF0895D8193CB01A8
:100500000097A1F716F45DE251931082C9010C9493
:100510008902DC01FC01672F71917723E1F73297A3
:1005200004C07C916D9370836291AE17BF07C8F3CE
:060530000895F894FFCFCE
:100536004C4142564945572047554900576974680A
:100546002050524F54455553004D6F74696F6E4499
:1005560065742E53595354454D2D2D2D2D2D2D2D6E
:100566002D00465352313A004D6F74696F6E204428
:1005760045544543544544004E4F204D6F74696FB2
:0C0586006E204445544543544544000099
:00000001FF
