:100000000C942A000C9434000C9434000C943400AA
:100010000C9434000C9434000C9434000C94340090
:100020000C9434000C9434000C9434000C94340080
:100030000C9434000C9434000C9434000C94340070
:100040000C9434000C9434000C9434000C94340060
:100050000C94340011241FBECFE5D4E0DEBFCDBF29
:100060000E9436000C9449000C940000B898B9988E
:10007000C19ABA9824ED30E3B09B04C0B19902C094
:10008000C29A03C088B3847088BBC9010197F1F795
:06009000F3CFF894FFCF4E
:00000001FF
